:100000000C942A000C9447000C9447000C9449006F
:100010000C9447000C9447000C9447000C94470044
:100020000C9447000C9447000C9466000C94470015
:100030000C9447000C9447000C9447000C94470024
:100040000C9447000C9447000C9447000C94470014
:100050000C94470011241FBECFE5D8E0DEBFCDBF12
:1000600010E0A0E6B0E0E2EEF3E002C005900D92F1
:10007000AE36B107D9F720E0AEE6B0E001C01D9280
:10008000AA37B207E1F70E9443010C94EF010C94E8
:1000900000001F920F920FB60F9211248F938BB70F
:1000A0008F7D8BBF81E080937900809178008F5F96
:1000B0008093780080917800833010F0109278005F
:1000C0008F910F900FBE0F901F9018951F920F9257
:1000D0000FB60F9211242F938F939F9380917700E7
:1000E0008F5F8093770080917700843010F01092BA
:1000F000770080917800813021F580917300909194
:10010000740087359240E8F48091750090917600F4
:100110000196909376008093750080917500909180
:100120007600883E934068F0109276001092750039
:100130008091730090917400019690937400809365
:1001400073009F918F912F910F900FBE0F901F9072
:100150001895BC0180917100909172006817790721
:10016000E1F1DC9A1092700010926F0010926E0014
:100170006C33710578F090E09F5F9B0101C0942F74
:100180002C53310941E0490F2C333105C0F79093CE
:10019000700001C09B012A30310570F090916F0012
:1001A0009F5F01C0942F2A50310941E0490F2A3046
:1001B0003105C0F790936F002115310549F080910A
:1001C0006E00A90141505109E9F7280F20936E00F4
:1001D0007093720060937100DC98809177008111B8
:1001E00011C0DD9A8BB38F738BBBE0917000E1116E
:1001F00002C015BA0895F0E0EE59FF4F8081806883
:1002000085BB089580917700813089F4DE9A8BB3A5
:100210008F758BBB6A30710510F415BA0895E091A3
:100220006F00F0E0EE59FF4F808185BB089580910B
:100230007700823069F480E88BBB8BB38F798BBBFE
:10024000E0916E00F0E0EE59FF4F808185BB08958C
:100250008BB38F718BBB15BA089580917800823073
:1002600029F488EE93E099BD88BD089580ED97E06C
:1002700099BD88BD089580917800823011F4959AD7
:10028000089595980895F89481B3806381BB84B3F1
:100290008FEF84BB8AB3806F8ABBC29A389A3E9A2A
:1002A0003F9A379A319A329A359A369A8FE19EE47C
:1002B0000197F1F700C0000084B195B183B7886061
:1002C00083BF83B7816083BF83B7826083BF8CE7BE
:1002D0008CBF8FB581608FBD8FB582608FBD8FB5AC
:1002E00080628FBD8EB588608EBD8EB580618EBDFB
:1002F0008EB582608EBD8FE19EE49BBD8ABD88EE87
:1003000093E099BD88BD84B78F7B84BF8BB7806233
:100310008BBF89B7826089BF7894CEE1D2E08091AB
:100320007900882371F08FE19EE40197F1F700C016
:1003300000001092790084B78F7B84BF8BB78062F6
:100340008BBF80917800811121C0109276001092AD
:100350007500109274001092730084B195B14091B1
:10036000600050916100C49F9001C59F300D112421
:10037000820F931F96958795929582958F70892706
:100380009F708927909361008093600020916000A6
:1003900030916100809173009091740082179307EF
:1003A00070F480917800823051F0809173009091C8
:1003B0007400A901481B590BCA01009749F4232B6B
:1003C00029F0D093780080E090E002C080E090E0D7
:1003D0000E94A9000E942D010E943B01A0CFF89429
:0203E000FFCF4D
:0E03E2003C003F065B4F666D7D077F6F80001D
:00000001FF
